{
  "_format": "hh-sol-artifact-1",
  "contractName": "EduLedger",
  "sourceName": "contracts/EduLedger.sol",
  "abi": [
    {
      "inputs": [],
      "stateMutability": "nonpayable",
      "type": "constructor"
    },
    {
      "inputs": [
        {
          "internalType": "address",
          "name": "sender",
          "type": "address"
        },
        {
          "internalType": "uint256",
          "name": "tokenId",
          "type": "uint256"
        },
        {
          "internalType": "address",
          "name": "owner",
          "type": "address"
        }
      ],
      "name": "ERC721IncorrectOwner",
      "type": "error"
    },
    {
      "inputs": [
        {
          "internalType": "address",
          "name": "operator",
          "type": "address"
        },
        {
          "internalType": "uint256",
          "name": "tokenId",
          "type": "uint256"
        }
      ],
      "name": "ERC721InsufficientApproval",
      "type": "error"
    },
    {
      "inputs": [
        {
          "internalType": "address",
          "name": "approver",
          "type": "address"
        }
      ],
      "name": "ERC721InvalidApprover",
      "type": "error"
    },
    {
      "inputs": [
        {
          "internalType": "address",
          "name": "operator",
          "type": "address"
        }
      ],
      "name": "ERC721InvalidOperator",
      "type": "error"
    },
    {
      "inputs": [
        {
          "internalType": "address",
          "name": "owner",
          "type": "address"
        }
      ],
      "name": "ERC721InvalidOwner",
      "type": "error"
    },
    {
      "inputs": [
        {
          "internalType": "address",
          "name": "receiver",
          "type": "address"
        }
      ],
      "name": "ERC721InvalidReceiver",
      "type": "error"
    },
    {
      "inputs": [
        {
          "internalType": "address",
          "name": "sender",
          "type": "address"
        }
      ],
      "name": "ERC721InvalidSender",
      "type": "error"
    },
    {
      "inputs": [
        {
          "internalType": "uint256",
          "name": "tokenId",
          "type": "uint256"
        }
      ],
      "name": "ERC721NonexistentToken",
      "type": "error"
    },
    {
      "inputs": [],
      "name": "ReentrancyGuardReentrantCall",
      "type": "error"
    },
    {
      "anonymous": false,
      "inputs": [
        {
          "indexed": true,
          "internalType": "address",
          "name": "owner",
          "type": "address"
        },
        {
          "indexed": true,
          "internalType": "address",
          "name": "approved",
          "type": "address"
        },
        {
          "indexed": true,
          "internalType": "uint256",
          "name": "tokenId",
          "type": "uint256"
        }
      ],
      "name": "Approval",
      "type": "event"
    },
    {
      "anonymous": false,
      "inputs": [
        {
          "indexed": true,
          "internalType": "address",
          "name": "owner",
          "type": "address"
        },
        {
          "indexed": true,
          "internalType": "address",
          "name": "operator",
          "type": "address"
        },
        {
          "indexed": false,
          "internalType": "bool",
          "name": "approved",
          "type": "bool"
        }
      ],
      "name": "ApprovalForAll",
      "type": "event"
    },
    {
      "anonymous": false,
      "inputs": [
        {
          "indexed": false,
          "internalType": "uint256",
          "name": "_fromTokenId",
          "type": "uint256"
        },
        {
          "indexed": false,
          "internalType": "uint256",
          "name": "_toTokenId",
          "type": "uint256"
        }
      ],
      "name": "BatchMetadataUpdate",
      "type": "event"
    },
    {
      "anonymous": false,
      "inputs": [
        {
          "indexed": true,
          "internalType": "uint256",
          "name": "tokenId",
          "type": "uint256"
        },
        {
          "indexed": true,
          "internalType": "address",
          "name": "seller",
          "type": "address"
        },
        {
          "indexed": false,
          "internalType": "string",
          "name": "cid",
          "type": "string"
        },
        {
          "indexed": false,
          "internalType": "uint256",
          "name": "price",
          "type": "uint256"
        }
      ],
      "name": "FileMinted",
      "type": "event"
    },
    {
      "anonymous": false,
      "inputs": [
        {
          "indexed": true,
          "internalType": "uint256",
          "name": "tokenId",
          "type": "uint256"
        },
        {
          "indexed": true,
          "internalType": "address",
          "name": "seller",
          "type": "address"
        },
        {
          "indexed": true,
          "internalType": "address",
          "name": "buyer",
          "type": "address"
        },
        {
          "indexed": false,
          "internalType": "uint256",
          "name": "price",
          "type": "uint256"
        }
      ],
      "name": "FilePurchased",
      "type": "event"
    },
    {
      "anonymous": false,
      "inputs": [
        {
          "indexed": false,
          "internalType": "uint256",
          "name": "_tokenId",
          "type": "uint256"
        }
      ],
      "name": "MetadataUpdate",
      "type": "event"
    },
    {
      "anonymous": false,
      "inputs": [
        {
          "indexed": true,
          "internalType": "address",
          "name": "from",
          "type": "address"
        },
        {
          "indexed": true,
          "internalType": "address",
          "name": "to",
          "type": "address"
        },
        {
          "indexed": true,
          "internalType": "uint256",
          "name": "tokenId",
          "type": "uint256"
        }
      ],
      "name": "Transfer",
      "type": "event"
    },
    {
      "inputs": [
        {
          "internalType": "address",
          "name": "to",
          "type": "address"
        },
        {
          "internalType": "uint256",
          "name": "tokenId",
          "type": "uint256"
        }
      ],
      "name": "approve",
      "outputs": [],
      "stateMutability": "nonpayable",
      "type": "function"
    },
    {
      "inputs": [
        {
          "internalType": "address",
          "name": "owner",
          "type": "address"
        }
      ],
      "name": "balanceOf",
      "outputs": [
        {
          "internalType": "uint256",
          "name": "",
          "type": "uint256"
        }
      ],
      "stateMutability": "view",
      "type": "function"
    },
    {
      "inputs": [
        {
          "internalType": "uint256",
          "name": "tokenId",
          "type": "uint256"
        }
      ],
      "name": "buyAccess",
      "outputs": [],
      "stateMutability": "payable",
      "type": "function"
    },
    {
      "inputs": [
        {
          "internalType": "uint256",
          "name": "tokenId",
          "type": "uint256"
        }
      ],
      "name": "getApproved",
      "outputs": [
        {
          "internalType": "address",
          "name": "",
          "type": "address"
        }
      ],
      "stateMutability": "view",
      "type": "function"
    },
    {
      "inputs": [
        {
          "internalType": "uint256",
          "name": "",
          "type": "uint256"
        },
        {
          "internalType": "address",
          "name": "",
          "type": "address"
        }
      ],
      "name": "hasPurchased",
      "outputs": [
        {
          "internalType": "bool",
          "name": "",
          "type": "bool"
        }
      ],
      "stateMutability": "view",
      "type": "function"
    },
    {
      "inputs": [
        {
          "internalType": "uint256",
          "name": "tokenId",
          "type": "uint256"
        },
        {
          "internalType": "address",
          "name": "user",
          "type": "address"
        }
      ],
      "name": "hasUserPurchased",
      "outputs": [
        {
          "internalType": "bool",
          "name": "",
          "type": "bool"
        }
      ],
      "stateMutability": "view",
      "type": "function"
    },
    {
      "inputs": [
        {
          "internalType": "address",
          "name": "owner",
          "type": "address"
        },
        {
          "internalType": "address",
          "name": "operator",
          "type": "address"
        }
      ],
      "name": "isApprovedForAll",
      "outputs": [
        {
          "internalType": "bool",
          "name": "",
          "type": "bool"
        }
      ],
      "stateMutability": "view",
      "type": "function"
    },
    {
      "inputs": [
        {
          "internalType": "string",
          "name": "cid",
          "type": "string"
        },
        {
          "internalType": "uint256",
          "name": "price",
          "type": "uint256"
        }
      ],
      "name": "mintFile",
      "outputs": [],
      "stateMutability": "nonpayable",
      "type": "function"
    },
    {
      "inputs": [],
      "name": "name",
      "outputs": [
        {
          "internalType": "string",
          "name": "",
          "type": "string"
        }
      ],
      "stateMutability": "view",
      "type": "function"
    },
    {
      "inputs": [
        {
          "internalType": "uint256",
          "name": "tokenId",
          "type": "uint256"
        }
      ],
      "name": "ownerOf",
      "outputs": [
        {
          "internalType": "address",
          "name": "",
          "type": "address"
        }
      ],
      "stateMutability": "view",
      "type": "function"
    },
    {
      "inputs": [
        {
          "internalType": "address",
          "name": "from",
          "type": "address"
        },
        {
          "internalType": "address",
          "name": "to",
          "type": "address"
        },
        {
          "internalType": "uint256",
          "name": "tokenId",
          "type": "uint256"
        }
      ],
      "name": "safeTransferFrom",
      "outputs": [],
      "stateMutability": "nonpayable",
      "type": "function"
    },
    {
      "inputs": [
        {
          "internalType": "address",
          "name": "from",
          "type": "address"
        },
        {
          "internalType": "address",
          "name": "to",
          "type": "address"
        },
        {
          "internalType": "uint256",
          "name": "tokenId",
          "type": "uint256"
        },
        {
          "internalType": "bytes",
          "name": "data",
          "type": "bytes"
        }
      ],
      "name": "safeTransferFrom",
      "outputs": [],
      "stateMutability": "nonpayable",
      "type": "function"
    },
    {
      "inputs": [
        {
          "internalType": "address",
          "name": "operator",
          "type": "address"
        },
        {
          "internalType": "bool",
          "name": "approved",
          "type": "bool"
        }
      ],
      "name": "setApprovalForAll",
      "outputs": [],
      "stateMutability": "nonpayable",
      "type": "function"
    },
    {
      "inputs": [
        {
          "internalType": "bytes4",
          "name": "interfaceId",
          "type": "bytes4"
        }
      ],
      "name": "supportsInterface",
      "outputs": [
        {
          "internalType": "bool",
          "name": "",
          "type": "bool"
        }
      ],
      "stateMutability": "view",
      "type": "function"
    },
    {
      "inputs": [],
      "name": "symbol",
      "outputs": [
        {
          "internalType": "string",
          "name": "",
          "type": "string"
        }
      ],
      "stateMutability": "view",
      "type": "function"
    },
    {
      "inputs": [
        {
          "internalType": "uint256",
          "name": "",
          "type": "uint256"
        }
      ],
      "name": "tokenPrice",
      "outputs": [
        {
          "internalType": "uint256",
          "name": "",
          "type": "uint256"
        }
      ],
      "stateMutability": "view",
      "type": "function"
    },
    {
      "inputs": [
        {
          "internalType": "uint256",
          "name": "",
          "type": "uint256"
        }
      ],
      "name": "tokenSeller",
      "outputs": [
        {
          "internalType": "address",
          "name": "",
          "type": "address"
        }
      ],
      "stateMutability": "view",
      "type": "function"
    },
    {
      "inputs": [
        {
          "internalType": "uint256",
          "name": "tokenId",
          "type": "uint256"
        }
      ],
      "name": "tokenURI",
      "outputs": [
        {
          "internalType": "string",
          "name": "",
          "type": "string"
        }
      ],
      "stateMutability": "view",
      "type": "function"
    },
    {
      "inputs": [
        {
          "internalType": "address",
          "name": "owner",
          "type": "address"
        }
      ],
      "name": "tokensOfOwner",
      "outputs": [
        {
          "internalType": "uint256[]",
          "name": "",
          "type": "uint256[]"
        }
      ],
      "stateMutability": "view",
      "type": "function"
    },
    {
      "inputs": [],
      "name": "totalMinted",
      "outputs": [
        {
          "internalType": "uint256",
          "name": "",
          "type": "uint256"
        }
      ],
      "stateMutability": "view",
      "type": "function"
    },
    {
      "inputs": [
        {
          "internalType": "address",
          "name": "from",
          "type": "address"
        },
        {
          "internalType": "address",
          "name": "to",
          "type": "address"
        },
        {
          "internalType": "uint256",
          "name": "tokenId",
          "type": "uint256"
        }
      ],
      "name": "transferFrom",
      "outputs": [],
      "stateMutability": "nonpayable",
      "type": "function"
    }
  ],
  "bytecode": "0x608060405234801561001057600080fd5b506040518060400160405280600981526020016822b23aa632b233b2b960b91b8152506040518060400160405280600381526020016211511360ea1b815250816000908161005e9190610117565b50600161006b8282610117565b50506001600755506101d5565b634e487b7160e01b600052604160045260246000fd5b600181811c908216806100a257607f821691505b6020821081036100c257634e487b7160e01b600052602260045260246000fd5b50919050565b601f82111561011257806000526020600020601f840160051c810160208510156100ef5750805b601f840160051c820191505b8181101561010f57600081556001016100fb565b50505b505050565b81516001600160401b0381111561013057610130610078565b6101448161013e845461008e565b846100c8565b6020601f82116001811461017857600083156101605750848201515b600019600385901b1c1916600184901b17845561010f565b600084815260208120601f198516915b828110156101a85787850151825560209485019460019092019101610188565b50848210156101c65786840151600019600387901b60f8161c191681555b50505050600190811b01905550565b611aac806101e46000396000f3fe60806040526004361061012a5760003560e01c806370a08231116100ab578063b88d4fde1161006f578063b88d4fde1461035e578063c87b56dd1461037e578063d4ddce8a1461039e578063dc9da2f8146103cb578063e985e9c514610406578063fa34d82f1461042657600080fd5b806370a08231146102b95780638462151c146102e757806395d89b4114610314578063a22cb46514610329578063a2309ff81461034957600080fd5b806323b872dd116100f257806323b872dd146102265780633beb14bc1461024657806342842e0e1461026657806350a1a264146102865780636352211e1461029957600080fd5b806301ffc9a71461012f578063028f55781461016457806306fdde03146101aa578063081812fc146101cc578063095ea7b314610204575b600080fd5b34801561013b57600080fd5b5061014f61014a3660046114ee565b61045c565b60405190151581526020015b60405180910390f35b34801561017057600080fd5b5061014f61017f366004611527565b6000918252600d602090815260408084206001600160a01b0393909316845291905290205460ff1690565b3480156101b657600080fd5b506101bf610487565b60405161015b91906115a3565b3480156101d857600080fd5b506101ec6101e73660046115b6565b610519565b6040516001600160a01b03909116815260200161015b565b34801561021057600080fd5b5061022461021f3660046115cf565b610542565b005b34801561023257600080fd5b506102246102413660046115f9565b610551565b34801561025257600080fd5b506102246102613660046116c6565b6105e1565b34801561027257600080fd5b506102246102813660046115f9565b61067b565b6102246102943660046115b6565b61069b565b3480156102a557600080fd5b506101ec6102b43660046115b6565b610968565b3480156102c557600080fd5b506102d96102d436600461171f565b610973565b60405190815260200161015b565b3480156102f357600080fd5b5061030761030236600461171f565b6109bb565b60405161015b919061173a565b34801561032057600080fd5b506101bf610a27565b34801561033557600080fd5b5061022461034436600461177d565b610a36565b34801561035557600080fd5b506008546102d9565b34801561036a57600080fd5b506102246103793660046117b9565b610a41565b34801561038a57600080fd5b506101bf6103993660046115b6565b610a59565b3480156103aa57600080fd5b506102d96103b93660046115b6565b600b6020526000908152604090205481565b3480156103d757600080fd5b5061014f6103e6366004611527565b600d60209081526000928352604080842090915290825290205460ff1681565b34801561041257600080fd5b5061014f610421366004611835565b610b6a565b34801561043257600080fd5b506101ec6104413660046115b6565b600c602052600090815260409020546001600160a01b031681565b60006001600160e01b03198216632483248360e11b1480610481575061048182610b98565b92915050565b6060600080546104969061185f565b80601f01602080910402602001604051908101604052809291908181526020018280546104c29061185f565b801561050f5780601f106104e45761010080835404028352916020019161050f565b820191906000526020600020905b8154815290600101906020018083116104f257829003601f168201915b5050505050905090565b600061052482610be8565b506000828152600460205260409020546001600160a01b0316610481565b61054d828233610c21565b5050565b6001600160a01b03821661058057604051633250574960e11b8152600060048201526024015b60405180910390fd5b600061058d838333610c2e565b9050836001600160a01b0316816001600160a01b0316146105db576040516364283d7b60e01b81526001600160a01b0380861660048301526024820184905282166044820152606401610577565b50505050565b60088054600181019091556105f63382610d5f565b6106008184610d79565b8115610632576000818152600b60209081526040808320859055600c909152902080546001600160a01b031916331790555b336001600160a01b0316817fdd0f11294c2bc5bb8836ba9c7e3b9f6bc2d23a33dd0194ac5d754364820f8ea8858560405161066e929190611899565b60405180910390a3505050565b61069683838360405180602001604052806000815250610a41565b505050565b6106a3610dc9565b6000818152600b6020908152604080832054600c909252909120546001600160a01b0316806107055760405162461bcd60e51b815260206004820152600e60248201526d24b73b30b634b21039b2b63632b960911b6044820152606401610577565b336001600160a01b0382160361075d5760405162461bcd60e51b815260206004820152601860248201527f43616e6e6f742062757920796f7572206f776e2066696c6500000000000000006044820152606401610577565b6000838152600d6020908152604080832033845290915290205460ff16156107bb5760405162461bcd60e51b8152602060048201526011602482015270105b1c9958591e481c1d5c98da185cd959607a1b6044820152606401610577565b811561089c578134146108025760405162461bcd60e51b815260206004820152600f60248201526e496e636f727265637420707269636560881b6044820152606401610577565b6000816001600160a01b03163460405160006040518083038185875af1925050503d806000811461084f576040519150601f19603f3d011682016040523d82523d6000602084013e610854565b606091505b50509050806108965760405162461bcd60e51b815260206004820152600e60248201526d14185e5b595b9d0819985a5b195960921b6044820152606401610577565b506108f6565b34156108f65760405162461bcd60e51b815260206004820152602360248201527f546869732066696c6520697320667265652e20446f206e6f742073656e6420456044820152622a241760e91b6064820152608401610577565b6000838152600d602090815260408083203380855290835292819020805460ff19166001179055518481526001600160a01b0384169186917f8e6fa1282ed78eeff7b91d1bf83f19639c3cd25bfa0791f032b58175a1cf79fd910160405180910390a450506109656001600755565b50565b600061048182610be8565b60006001600160a01b03821661099f576040516322718ad960e21b815260006004820152602401610577565b506001600160a01b031660009081526003602052604090205490565b6001600160a01b0381166000908152600a6020908152604091829020805483518184028101840190945280845260609392830182828015610a1b57602002820191906000526020600020905b815481526020019060010190808311610a07575b50505050509050919050565b6060600180546104969061185f565b61054d338383610df3565b610a4c848484610551565b6105db3385858585610e8a565b6060610a6482610be8565b5060008281526006602052604081208054610a7e9061185f565b80601f0160208091040260200160405190810160405280929190818152602001828054610aaa9061185f565b8015610af75780601f10610acc57610100808354040283529160200191610af7565b820191906000526020600020905b815481529060010190602001808311610ada57829003601f168201915b505050505090506000610b1560408051602081019091526000815290565b90508051600003610b27575092915050565b815115610b59578082604051602001610b419291906118bb565b60405160208183030381529060405292505050919050565b610b6284610fb5565b949350505050565b6001600160a01b03918216600090815260056020908152604080832093909416825291909152205460ff1690565b60006001600160e01b031982166380ac58cd60e01b1480610bc957506001600160e01b03198216635b5e139f60e01b145b8061048157506301ffc9a760e01b6001600160e01b0319831614610481565b6000818152600260205260408120546001600160a01b03168061048157604051637e27328960e01b815260048101849052602401610577565b610696838383600161102a565b600080610c3c858585611130565b90506001600160a01b03811615610d10576001600160a01b0381166000908152600a60209081526040808320878452600990925290912054815460001901808214610cd5576000838281548110610c9557610c956118ea565b9060005260206000200154905080848481548110610cb557610cb56118ea565b600091825260208083209091019290925591825260099052604090208290555b82805480610ce557610ce5611900565b6000828152602080822083016000199081018390559092019092558882526009905260408120555050505b6001600160a01b03851615610b62576001600160a01b0385166000908152600a602090815260408083208054888552600984529184208290556001820181558352912001849055949350505050565b61054d828260405180602001604052806000815250611229565b6000828152600660205260409020610d91828261195d565b506040518281527ff8e1a15aba9398e019f0b49df1a4fde98ee17ae345cb5f6b5e2c27f5033e8ce79060200160405180910390a15050565b600260075403610dec57604051633ee5aeb560e01b815260040160405180910390fd5b6002600755565b6001600160a01b038216610e2557604051630b61174360e31b81526001600160a01b0383166004820152602401610577565b6001600160a01b03838116600081815260056020908152604080832094871680845294825291829020805460ff191686151590811790915591519182527f17307eab39ab6107e8899845ad3d59bd9653f200f220920489ca2b5937696c31910161066e565b6001600160a01b0383163b15610fae57604051630a85bd0160e11b81526001600160a01b0384169063150b7a0290610ecc908890889087908790600401611a1c565b6020604051808303816000875af1925050508015610f07575060408051601f3d908101601f19168201909252610f0491810190611a59565b60015b610f70573d808015610f35576040519150601f19603f3d011682016040523d82523d6000602084013e610f3a565b606091505b508051600003610f6857604051633250574960e11b81526001600160a01b0385166004820152602401610577565b805160208201fd5b6001600160e01b03198116630a85bd0160e11b14610fac57604051633250574960e11b81526001600160a01b0385166004820152602401610577565b505b5050505050565b6060610fc082610be8565b506000610fd860408051602081019091526000815290565b90506000815111610ff85760405180602001604052806000815250611023565b8061100284611241565b6040516020016110139291906118bb565b6040516020818303038152906040525b9392505050565b808061103e57506001600160a01b03821615155b1561110057600061104e84610be8565b90506001600160a01b0383161580159061107a5750826001600160a01b0316816001600160a01b031614155b801561108d575061108b8184610b6a565b155b156110b65760405163a9fbf51f60e01b81526001600160a01b0384166004820152602401610577565b81156110fe5783856001600160a01b0316826001600160a01b03167f8c5be1e5ebec7d5bd14f71427d1e84f3dd0314c0f7b2291e5b200ac8c7c3b92560405160405180910390a45b505b5050600090815260046020526040902080546001600160a01b0319166001600160a01b0392909216919091179055565b6000828152600260205260408120546001600160a01b039081169083161561115d5761115d8184866112d4565b6001600160a01b0381161561119b5761117a60008560008061102a565b6001600160a01b038116600090815260036020526040902080546000190190555b6001600160a01b038516156111ca576001600160a01b0385166000908152600360205260409020805460010190555b60008481526002602052604080822080546001600160a01b0319166001600160a01b0389811691821790925591518793918516917fddf252ad1be2c89b69c2b068fc378daa952ba7f163c4a11628f55a4df523b3ef91a4949350505050565b6112338383611338565b610696336000858585610e8a565b6060600061124e8361139d565b600101905060008167ffffffffffffffff81111561126e5761126e611636565b6040519080825280601f01601f191660200182016040528015611298576020820181803683370190505b5090508181016020015b600019016f181899199a1a9b1b9c1cb0b131b232b360811b600a86061a8153600a85049450846112a257509392505050565b6112df838383611475565b610696576001600160a01b03831661130d57604051637e27328960e01b815260048101829052602401610577565b60405163177e802f60e01b81526001600160a01b038316600482015260248101829052604401610577565b6001600160a01b03821661136257604051633250574960e11b815260006004820152602401610577565b600061137083836000610c2e565b90506001600160a01b03811615610696576040516339e3563760e11b815260006004820152602401610577565b60008072184f03e93ff9f4daa797ed6e38ed64bf6a1f0160401b83106113dc5772184f03e93ff9f4daa797ed6e38ed64bf6a1f0160401b830492506040015b6d04ee2d6d415b85acef81000000008310611408576d04ee2d6d415b85acef8100000000830492506020015b662386f26fc10000831061142657662386f26fc10000830492506010015b6305f5e100831061143e576305f5e100830492506008015b612710831061145257612710830492506004015b60648310611464576064830492506002015b600a83106104815760010192915050565b60006001600160a01b03831615801590610b625750826001600160a01b0316846001600160a01b031614806114af57506114af8484610b6a565b80610b625750506000908152600460205260409020546001600160a01b03908116911614919050565b6001600160e01b03198116811461096557600080fd5b60006020828403121561150057600080fd5b8135611023816114d8565b80356001600160a01b038116811461152257600080fd5b919050565b6000806040838503121561153a57600080fd5b8235915061154a6020840161150b565b90509250929050565b60005b8381101561156e578181015183820152602001611556565b50506000910152565b6000815180845261158f816020860160208601611553565b601f01601f19169290920160200192915050565b6020815260006110236020830184611577565b6000602082840312156115c857600080fd5b5035919050565b600080604083850312156115e257600080fd5b6115eb8361150b565b946020939093013593505050565b60008060006060848603121561160e57600080fd5b6116178461150b565b92506116256020850161150b565b929592945050506040919091013590565b634e487b7160e01b600052604160045260246000fd5b60008067ffffffffffffffff84111561166757611667611636565b50604051601f19601f85018116603f0116810181811067ffffffffffffffff8211171561169657611696611636565b6040528381529050808284018510156116ae57600080fd5b83836020830137600060208583010152509392505050565b600080604083850312156116d957600080fd5b823567ffffffffffffffff8111156116f057600080fd5b8301601f8101851361170157600080fd5b6117108582356020840161164c565b95602094909401359450505050565b60006020828403121561173157600080fd5b6110238261150b565b602080825282518282018190526000918401906040840190835b81811015611772578351835260209384019390920191600101611754565b509095945050505050565b6000806040838503121561179057600080fd5b6117998361150b565b9150602083013580151581146117ae57600080fd5b809150509250929050565b600080600080608085870312156117cf57600080fd5b6117d88561150b565b93506117e66020860161150b565b925060408501359150606085013567ffffffffffffffff81111561180957600080fd5b8501601f8101871361181a57600080fd5b6118298782356020840161164c565b91505092959194509250565b6000806040838503121561184857600080fd5b6118518361150b565b915061154a6020840161150b565b600181811c9082168061187357607f821691505b60208210810361189357634e487b7160e01b600052602260045260246000fd5b50919050565b6040815260006118ac6040830185611577565b90508260208301529392505050565b600083516118cd818460208801611553565b8351908301906118e1818360208801611553565b01949350505050565b634e487b7160e01b600052603260045260246000fd5b634e487b7160e01b600052603160045260246000fd5b601f82111561069657806000526020600020601f840160051c8101602085101561193d5750805b601f840160051c820191505b81811015610fae5760008155600101611949565b815167ffffffffffffffff81111561197757611977611636565b61198b81611985845461185f565b84611916565b6020601f8211600181146119bf57600083156119a75750848201515b600019600385901b1c1916600184901b178455610fae565b600084815260208120601f198516915b828110156119ef57878501518255602094850194600190920191016119cf565b5084821015611a0d5786840151600019600387901b60f8161c191681555b50505050600190811b01905550565b6001600160a01b0385811682528416602082015260408101839052608060608201819052600090611a4f90830184611577565b9695505050505050565b600060208284031215611a6b57600080fd5b8151611023816114d856fea2646970667358221220d2815357ca3efa5d914e1f20e0ffbb4d8eb42d6f2203af27969772d2caa5be5164736f6c634300081c0033",
  "linkReferences": {},
  "deployedLinkReferences": {}
}